{
  "contractName": "documents432",
  "abi": [
    {
      "inputs": [
        {
          "internalType": "string",
          "name": "id",
          "type": "string"
        },
        {
          "internalType": "string",
          "name": "content",
          "type": "string"
        },
        {
          "internalType": "string",
          "name": "docHash",
          "type": "string"
        }
      ],
      "name": "storeDocument",
      "outputs": [],
      "stateMutability": "nonpayable",
      "type": "function"
    },
    {
      "inputs": [
        {
          "internalType": "string",
          "name": "id",
          "type": "string"
        }
      ],
      "name": "getDocument",
      "outputs": [
        {
          "internalType": "string",
          "name": "",
          "type": "string"
        },
        {
          "internalType": "string",
          "name": "",
          "type": "string"
        }
      ],
      "stateMutability": "view",
      "type": "function",
      "constant": true
    }
  ],
  "bytecode": "0x608060405234801561001057600080fd5b5061069f806100206000396000f3fe608060405234801561001057600080fd5b50600436106100365760003560e01c80637ccb6a641461003b578063f2d893e41461006c575b600080fd5b6100556004803603810190610050919061036e565b610088565b6040516100639291906104c7565b60405180910390f35b610086600480360381019061008191906103af565b6101ee565b005b60608060008360405161009b91906104b0565b90815260200160405180910390206001016000846040516100bc91906104b0565b90815260200160405180910390206000018180546100d9906105c8565b80601f0160208091040260200160405190810160405280929190818152602001828054610105906105c8565b80156101525780601f1061012757610100808354040283529160200191610152565b820191906000526020600020905b81548152906001019060200180831161013557829003601f168201915b50505050509150808054610165906105c8565b80601f0160208091040260200160405190810160405280929190818152602001828054610191906105c8565b80156101de5780601f106101b3576101008083540402835291602001916101de565b820191906000526020600020905b8154815290600101906020018083116101c157829003601f168201915b5050505050905091509150915091565b60405180604001604052808281526020018381525060008460405161021391906104b0565b9081526020016040518091039020600082015181600001908051906020019061023d929190610263565b50602082015181600101908051906020019061025a929190610263565b50905050505050565b82805461026f906105c8565b90600052602060002090601f01602090048101928261029157600085556102d8565b82601f106102aa57805160ff19168380011785556102d8565b828001600101855582156102d8579182015b828111156102d75782518255916020019190600101906102bc565b5b5090506102e591906102e9565b5090565b5b808211156103025760008160009055506001016102ea565b5090565b60006103196103148461052f565b6104fe565b90508281526020810184848401111561033157600080fd5b61033c848285610586565b509392505050565b600082601f83011261035557600080fd5b8135610365848260208601610306565b91505092915050565b60006020828403121561038057600080fd5b600082013567ffffffffffffffff81111561039a57600080fd5b6103a684828501610344565b91505092915050565b6000806000606084860312156103c457600080fd5b600084013567ffffffffffffffff8111156103de57600080fd5b6103ea86828701610344565b935050602084013567ffffffffffffffff81111561040757600080fd5b61041386828701610344565b925050604084013567ffffffffffffffff81111561043057600080fd5b61043c86828701610344565b9150509250925092565b60006104518261055f565b61045b818561056a565b935061046b818560208601610595565b61047481610658565b840191505092915050565b600061048a8261055f565b610494818561057b565b93506104a4818560208601610595565b80840191505092915050565b60006104bc828461047f565b915081905092915050565b600060408201905081810360008301526104e18185610446565b905081810360208301526104f58184610446565b90509392505050565b6000604051905081810181811067ffffffffffffffff8211171561052557610524610629565b5b8060405250919050565b600067ffffffffffffffff82111561054a57610549610629565b5b601f19601f8301169050602081019050919050565b600081519050919050565b600082825260208201905092915050565b600081905092915050565b82818337600083830152505050565b60005b838110156105b3578082015181840152602081019050610598565b838111156105c2576000848401525b50505050565b600060028204905060018216806105e057607f821691505b602082108114156105f4576105f36105fa565b5b50919050565b7f4e487b7100000000000000000000000000000000000000000000000000000000600052602260045260246000fd5b7f4e487b7100000000000000000000000000000000000000000000000000000000600052604160045260246000fd5b6000601f19601f830116905091905056fea2646970667358221220eb73e9c8484bcf4f53481cc9b4e05b305bf2dcf72318dc7d0ae60eed92de7e1d64736f6c63430008000033",
  "immutableReferences": {},
  "source": "// SPDX-License-Identifier: MIT\r\npragma solidity ^0.8.0;\r\n\r\ncontract documents432 {\r\n    struct Document432 {\r\n        string docHash;\r\n        string content;\r\n    }\r\n\r\n    mapping(string => Document432) private documents;\r\n\r\n    function storeDocument(string memory id, string memory content, string memory docHash) public {\r\n        documents[id] = Document432(docHash, content);\r\n    }\r\n\r\n    function getDocument(string memory id) public view returns (string memory, string memory) {\r\n        return (documents[id].content, documents[id].docHash);\r\n    }\r\n}\r\n\r\n\r\n\r\n",
  "sourcePath": "D:\\DU\\Sem - #\\Blockchain\\L1\\contracts\\documents432.sol",
  "compiler": {
    "name": "solc",
    "version": "0.8.0+commit.c7dfd78e.Emscripten.clang"
  },
  "schemaVersion": "3.4.16",
  "updatedAt": "2024-05-22T22:16:02.007Z",
  "networkType": "ethereum",
  "devdoc": {
    "kind": "dev",
    "methods": {},
    "version": 1
  },
  "userdoc": {
    "kind": "user",
    "methods": {},
    "version": 1
  }
}